:100000000C9475000C9492000C9492000C94920045
:100010000C9492000C9492000C9492000C94920018
:100020000C9492000C9492000C9492000C94920008
:100030000C9492000C9492000C9492000C949200F8
:100040000C9458010C9492000C9492000C94920021
:100050000C9492000C9492000C9492000C949200D8
:100060000C9492000C94920007634236B79BD8A779
:100070001A39685618AEBAAB558C1D3CB7CC5763CD
:10008000BD6DEDFD753EF6177231BF000000803F7B
:1000900008000000BE922449123EABAAAA2ABECD97
:1000A000CCCC4C3E00000080BEABAAAAAA3E000009
:1000B0000000BF000000803F000000000008417801
:1000C000D3BB4387D1133D190E3CC3BD4282AD2B38
:1000D0003E68EC8276BED98FE1A93E4C80EFFFBE30
:1000E00001C4FF7F3F000000000011241FBECFEFBE
:1000F000D8E0DEBFCDBF11E0A0E0B1E0E6E3FCE078
:1001000002C005900D92A830B107D9F724E0A8E00D
:10011000B1E001C01D92AE34B207E1F70E94910137
:100120000C9419060C9400009B0121503109FC012C
:10013000E60FF71FDC01AD01481B590B42175307AF
:100140003CF44C9152915D93408321503109F3CF9F
:100150000895EF92FF920F931F93CF93DF938B013C
:100160009A01FB014AE0E42EF12CEF01C01BD10BF8
:10017000009739F0B7010E945102805D8193CB0155
:10018000F4CFF801EC0FFD1F80E3C217D3071CF476
:1001900021968193FACFBE01C8010E949400F80114
:1001A000EC0FFD1F1082CE01DF91CF911F910F91B7
:1001B000FF90EF9008952F923F924F925F926F922F
:1001C0007F928F929F92AF92BF92CF92DF92EF92E7
:1001D000FF920F931F93CF93DF934B015C01EA01D2
:1001E00089010E9458036B017C0140E050E0BE0190
:1001F000C6010E94A9001C010115110509F445C0A2
:10020000FE01E80FF91F8EE28083B801012E000C79
:10021000880B990B0E9490039B01AC0160E070E099
:1002200080E291E40E9489042B013C01B601DD0CBF
:10023000880B990B0E9490039B01AC01C501B4018E
:100240000E9479022FEF221A320AC20DD31DA30198
:1002500092010E941C040E945803DC01CB01A801FA
:10026000BE01DF91CF911F910F91FF90EF90DF9032
:10027000CF90BF90AF909F908F907F906F905F9046
:100280004F903F902F900C94A900DF91CF911F9138
:100290000F91FF90EF90DF90CF90BF90AF909F9025
:1002A0008F907F906F905F904F903F902F90089528
:1002B0001F920F920FB60F9211242F933F934F93DB
:1002C0005F936F937F938F939F93AF93BF93EF93BE
:1002D000FF9320E030E048EC52E460910C01709113
:1002E0000D0180910E0190910F010E94E60220E025
:1002F00030E04FE753E40E941C040E945F0367BD97
:10030000FF91EF91BF91AF919F918F917F916F91ED
:100310005F914F913F912F910F900FBE0F901F90C3
:100320001895E0900001F090010106E211E060E014
:1003300070E06E157F05A4F4EB01219677FDBE01F8
:1003400075956795072E000C880B990B0E949003FA
:10035000F80161937193819391938F01BE01E9CF6D
:1003600060912601709127018091280190912901C7
:100370000E945803709325016093240180E48AB998
:1003800083E884BD81E080936E0020E030E048EC9B
:1003900052E460910C0170910D0180910E019091D9
:1003A0000F010E94E60220E030E04FE753E40E9494
:1003B0001C040E945F0367BD789485E085BD1092A0
:1003C000C50087E68093C4008091C0008D7F809334
:1003D000C00088E08093C10087B1807287B985E64C
:1003E00080937C0087E880937A0080910801909147
:1003F0000901883C91052CF0109209011092080126
:10040000F4CF019690930901809308018FE99FE052
:100410000197F1F700C00000E0910801F091090197
:10042000EE0FFF1FEE0FFF1FEA5DFE4F80819181EF
:10043000A281B38180930C0190930D01A0930E01D2
:10044000B0930F0180917A00806480937A0080914C
:100450007A0086FDFCCF6091790070E070932501F1
:1004600060932401072E000C880B990B0E949003C7
:1004700023E030E040E151E00E94DB0062E071E007
:1004800080E191E00E940E06E0E1F1E08191882395
:1004900009F4ABCF9091C00095FFFCCF8093C600CC
:1004A000F5CF97FB072E16F4009407D077FD09D0FF
:1004B0000E94650207FC05D03EF4909581959F4F00
:1004C0000895709561957F4F0895AA1BBB1B51E15C
:1004D00007C0AA1FBB1FA617B70710F0A61BB70BB4
:1004E000881F991F5A95A9F780959095BC01CD0159
:1004F00008955058BB27AA270E9491020C94E2034A
:100500000E94D40338F00E94DB0320F039F49F3FAF
:1005100019F426F40C94D1030EF4E095E7FB0C9447
:10052000CB03E92F0E94F30358F3BA17620773074E
:100530008407950720F079F4A6F50C9415040EF4C1
:10054000E0950B2EBA2FA02D0B01B90190010C01E3
:10055000CA01A0011124FF27591B99F0593F50F4FB
:10056000503E68F11A16F040A22F232F342F442753
:10057000585FF3CF469537952795A795F04053954B
:10058000C9F77EF41F16BA0B620B730B840BBAF01B
:100590009150A1F0FF0FBB1F661F771F881FC2F786
:1005A0000EC0BA0F621F731F841F48F4879577959A
:1005B0006795B795F7959E3F08F0B0CF9395880F54
:1005C00008F09927EE0F9795879508950E94FA02F3
:1005D0000C94E2030E94DB0358F00E94D40340F025
:1005E00029F45F3F29F00C94CB0351110C941604AD
:1005F0000C94D1030E94F30368F39923B1F35523BC
:1006000091F3951B550BBB27AA2762177307840725
:1006100038F09F5F5F4F220F331F441FAA1FA9F3BB
:1006200035D00E2E3AF0E0E832D091505040E695A9
:10063000001CCAF72BD0FE2F29D0660F771F881F0A
:10064000BB1F261737074807AB07B0E809F0BB0BFD
:10065000802DBF01FF2793585F4F3AF09E3F510511
:1006600078F00C94CB030C9416045F3FE4F3983EAF
:10067000D4F3869577956795B795F7959F5FC9F7FA
:10068000880F911D9695879597F90895E1E0660F7B
:10069000771F881FBB1F621773078407BA0720F0F4
:1006A000621B730B840BBA0BEE1F88F7E09508955D
:1006B0000E945F036894B1110C94160408950E947F
:1006C000FB0388F09F5798F0B92F9927B751B0F0E6
:1006D000E1F0660F771F881F991F1AF0BA95C9F7C6
:1006E00014C0B13091F00E941504B1E008950C944B
:1006F0001504672F782F8827B85F39F0B93FCCF3FE
:10070000869577956795B395D9F73EF49095809542
:10071000709561957F4F8F4F9F4F0895E89409C062
:1007200097FB3EF490958095709561957F4F8F4F24
:100730009F4F9923A9F0F92F96E9BB279395F6953A
:10074000879577956795B795F111F8CFFAF4BB0FB8
:1007500011F460FF1BC06F5F7F4F8F4F9F4F16C01C
:10076000882311F096E911C0772321F09EE8872FA6
:10077000762F05C0662371F096E8862F70E060E062
:100780002AF09A95660F771F881FDAF7880F9695DB
:10079000879597F9089597F99F6780E870E060E082
:1007A00008959FEF80EC089500240A94161617060A
:1007B00018060906089500240A9412161306140652
:1007C00005060895092E0394000C11F4882352F0B5
:1007D000BB0F40F4BF2B11F460FF04C06F5F7F4F6D
:1007E0008F4F9F4F089557FD9058440F551F59F054
:1007F0005F3F71F04795880F97FB991F61F09F3F0E
:1008000079F087950895121613061406551FF2CF36
:100810004695F1DF08C0161617061806991FF1CF86
:1008200086957105610508940895E894BB276627AD
:100830007727CB0197F908950E942F040C94E203C7
:100840000E94D40338F00E94DB0320F0952311F0BE
:100850000C94CB030C94D10311240C9416040E9425
:10086000F30370F3959FC1F3950F50E0551F629FFE
:10087000F001729FBB27F00DB11D639FAA27F00DF9
:10088000B11DAA1F649F6627B00DA11D661F829F20
:100890002227B00DA11D621F739FB00DA11D621F05
:1008A000839FA00D611D221F749F3327A00D611D22
:1008B000231F849F600D211D822F762F6A2F112404
:1008C0009F5750409AF0F1F088234AF0EE0FFF1F37
:1008D000BB1F661F771F881F91505040A9F79E3F8E
:1008E000510580F00C94CB030C9416045F3FE4F3A5
:1008F000983ED4F3869577956795B795F795E795E4
:100900009F5FC1F7FE2B880F911D9695879597F9EC
:100910000895FA01EE0FFF1F309621053105A1F170
:100920006115710561F48038BFE39B0749F1689454
:100930009038810561F08038BFEF9B0741F0992323
:100940004AF5FF3FE1053105210519F1E8940894C6
:10095000E795D901AA2329F4AB2FBE2FF85FD0F376
:1009600010C0FF5F70F4A695E0F7F73950F019F06A
:10097000FF3A38F49F779F930DD00F9007FC905863
:10098000089546F00C94D10360E070E080E89FE3A6
:1009900008954FE79F775F934F933F932F930E9464
:1009A00084052F913F914F915F910E941C040C94FC
:1009B000E10429F416F00C94CB030C9415040C9468
:1009C000D1030E94FB03A8F39638A0F707F80F9213
:1009D000E8942BE33AEA48EB5FE70E9432040F9277
:1009E0000F920F924DB75EB70F920E94CC05E8E6CA
:1009F000F0E00E9413054F915F91EF91FF91E59513
:100A0000EE1FFF1F49F0FE57E0684427EE0F441F1A
:100A1000FA95E1F74195550B0E9446050F9007FEA8
:100A20000C943A050895DF93CF931F930F93FF9291
:100A3000EF92DF927B018C01689406C0DA2EEF0101
:100A40000E942F04FE01E894A591259135914591CE
:100A50005591A6F3EF010E949102FE019701A801B2
:100A6000DA9469F7DF90EF90FF900F911F91CF918B
:100A7000DF9108959B01AC0160E070E080E89FE3A6
:100A80000C94E6020C94CB030C9400060E94FB032A
:100A9000D8F39923C9F3940F511DA3F391505040FB
:100AA00094F059F0882332F0660F771F881F915019
:100AB0005040C1F79E3F51052CF7880F911D969528
:100AC000879597F908955F3FACF0983E9CF0BB275F
:100AD000869577956795B79508F4B1609395C1F7BA
:100AE000BB0F58F711F460FFE8CF6F5F7F4F8F4F58
:100AF0009F4FE3CF0C94160416F00C9400060C9450
:100B0000D10368940C94CB030E94FB03A8F39923B0
:100B1000C1F3AEF3DF93CF931F930F93FF92C92FCF
:100B2000DD2788232AF02197660F771F881FDAF7C1
:100B300020E030E040E85FEB9FE3883920F0803E22
:100B400038F021968F770E947A02E0E9F0E004C045
:100B50000E947A02EDEBF0E00E9413058B01BE01CA
:100B6000EC01FB2E6F5771097595771F880B990B58
:100B70000E94900328E132E741E35FE30E942F04E3
:100B8000AF2D9801AE01FF900F911F91CF91DF9192
:100B90000E9491020C94E203FA01DC01AA0FBB1F30
:100BA0009B01AC01BF5728F42227332744275078F4
:100BB00020C0B75190F4AB2F002446953795279568
:100BC000011CA395D2F3002071F0220F331F441FA4
:100BD000B395DAF30ED00C94790261307105A0E878
:100BE0008A07B94630F49B01AC016627772788272E
:100BF0009078309621F02083318342835383089587
:100C00009F3F31F0915020F4879577956795B79580
:100C1000880F911D9695879597F90895FB01DC0142
:100C20000D900020E9F7119701900D920020E1F757
:060C30000895F894FFCFC7
:080C3600C80056200A0D000061
:00000001FF
