:100000000C9475000C9492000C9492000C94920045
:100010000C9492000C9492000C9492000C94920018
:100020000C9492000C9492000C9492000C94920008
:100030000C9492000C9492000C9492000C949200F8
:100040000C9492000C9492000C9492000C949200E8
:100050000C9492000C9492000C9492000C949200D8
:100060000C9492000C94920007634236B79BD8A779
:100070001A39685618AEBAAB558C1D3CB7CC5763CD
:10008000BD6DEDFD753EF6177231BF000000803F7B
:1000900008000000BE922449123EABAAAA2ABECD97
:1000A000CCCC4C3E00000080BEABAAAAAA3E000009
:1000B0000000BF000000803F000000000008417801
:1000C000D3BB4387D1133D190E3CC3BD4282AD2B38
:1000D0003E68EC8276BED98FE1A93E4C80EFFFBE30
:1000E00001C4FF7F3F000000000011241FBECFEFBE
:1000F000D8E0DEBFCDBF11E0A0E0B1E0ECE9FBE06D
:1001000002C005900D92A630B107D9F721E0A6E014
:10011000B1E001C01D92AA3DB207E1F70E9458016B
:100120000C94CC050C9400009B0121503109FC017A
:10013000E60FF71FDC01AD01481B590B42175307AF
:100140003CF44C9152915D93408321503109F3CF9F
:100150000895EF92FF920F931F93CF93DF938B013C
:100160009A01FB014AE0E42EF12CEF01C01BD10BF8
:10017000009739F0B7010E940402805D8193CB01A2
:10018000F4CFF801EC0FFD1F80E3C217D3071CF476
:1001900021968193FACFBE01C8010E949400F80114
:1001A000EC0FFD1F1082CE01DF91CF911F910F91B7
:1001B000FF90EF9008952F923F924F925F926F922F
:1001C0007F928F929F92AF92BF92CF92DF92EF92E7
:1001D000FF920F931F93CF93DF934B015C01EA01D2
:1001E00089010E9499026B017C0140E050E0BE0150
:1001F000C6010E94A9001C010115110509F445C0A2
:10020000FE01E80FF91F8EE28083B801012E000C79
:10021000880B990B0E94D1029B01AC0160E070E059
:1002200080E291E40E94CA032B013C01B601DD0C7F
:10023000880B990B0E94D1029B01AC01C501B4014E
:100240000E942C022FEF221A320AC20DD31DA301E5
:1002500092010E945D030E949902DC01CB01A8017A
:10026000BE01DF91CF911F910F91FF90EF90DF9032
:10027000CF90BF90AF909F908F907F906F905F9046
:100280004F903F902F900C94A900DF91CF911F9138
:100290000F91FF90EF90DF90CF90BF90AF909F9025
:1002A0008F907F906F905F904F903F902F90089528
:1002B000CF93DF93CDB7DEB764970FB6F894DEBF68
:1002C0000FBECDBF259A1092C50087E68093C4006B
:1002D0008091C0008D7F8093C00088E08093C10032
:1002E0001092130110921201E2E1F1E080E090E03F
:1002F00081939193019684369105D1F790930901EA
:1003000080930801389880E680937C0087E880938A
:100310007A0010920901109208012FEF81EE94E00B
:10032000215080409040E1F700C00000809108011A
:1003300090910901FC01EE0FFF1FEE5EFE4F409110
:1003400006015091070120813181240F351F309320
:100350000701209306018436910534F401969093A9
:1003600009018093080110C0109209011092080140
:100370001092070110920601E2E1F1E01192119250
:1003800021E0EA3DF207D1F780917A008064809302
:100390007A0080917A0086FDFCCF6091790070E050
:1003A00080E090E00E94CF0260930A0170930B01FD
:1003B00080930C0190930D0121E63DEF4FE95CE342
:1003C0000E945D0360930E0170930F0180931001F2
:1003D0009093110123E030E0AE014F5F5F4F0E9428
:1003E000DB0060E071E0CE0101960E94C105FE01D4
:1003F00031968191882309F490CF9091C00095FFA8
:10040000FCCF8093C600F5CF97FB072E16F400941F
:1004100007D077FD09D00E94180207FC05D03EF4F2
:10042000909581959F4F0895709561957F4F0895A0
:10043000AA1BBB1B51E107C0AA1FBB1FA617B7070A
:1004400010F0A61BB70B881F991F5A95A9F7809526
:100450009095BC01CD0108955058BB27AA270E9452
:1004600044020C9423030E94150338F00E941C03DD
:1004700020F039F49F3F19F426F40C9412030EF483
:10048000E095E7FB0C940C03E92F0E94340358F32A
:10049000BA17620773078407950720F079F4A6F569
:1004A0000C9456030EF4E0950B2EBA2FA02D0B01E1
:1004B000B90190010C01CA01A0011124FF27591BA9
:1004C00099F0593F50F4503E68F11A16F040A22FAF
:1004D000232F342F4427585FF3CF46953795279520
:1004E000A795F0405395C9F77EF41F16BA0B620B1F
:1004F000730B840BBAF09150A1F0FF0FBB1F661F66
:10050000771F881FC2F70EC0BA0F621F731F841FA8
:1005100048F4879577956795B795F7959E3F08F0CE
:10052000B0CF9395880F08F09927EE0F9795879590
:1005300008950E94A0026894B1110C945703089585
:100540000E943C0388F09F5798F0B92F9927B75124
:10055000B0F0E1F0660F771F881F991F1AF0BA9567
:10056000C9F714C0B13091F00E945603B1E008956C
:100570000C945603672F782F8827B85F39F0B93F5E
:10058000CCF3869577956795B395D9F73EF490951A
:100590008095709561957F4F8F4F9F4F0895E89498
:1005A00009C097FB3EF490958095709561957F4FBB
:1005B0008F4F9F4F9923A9F0F92F96E9BB27939569
:1005C000F695879577956795B795F111F8CFFAF479
:1005D000BB0F11F460FF1BC06F5F7F4F8F4F9F4FAA
:1005E00016C0882311F096E911C0772321F09EE808
:1005F000872F762F05C0662371F096E8862F70E06E
:1006000060E02AF09A95660F771F881FDAF7880F47
:100610009695879597F9089597F99F6780E870E018
:1006200060E008959FEF80EC089500240A94161668
:10063000170618060906089500240A9412161306D0
:10064000140605060895092E0394000C11F488235E
:1006500052F0BB0F40F4BF2B11F460FF04C06F5F7A
:100660007F4F8F4F9F4F089557FD9058440F551F50
:1006700059F05F3F71F04795880F97FB991F61F024
:100680009F3F79F087950895121613061406551F9B
:10069000F2CF4695F1DF08C0161617061806991F07
:1006A000F1CF86957105610508940895E894BB27FC
:1006B00066277727CB0197F908950E9470030C9461
:1006C00023030E94150338F00E941C0320F0952399
:1006D00011F00C940C030C94120311240C94570386
:1006E0000E94340370F3959FC1F3950F50E0551F9E
:1006F000629FF001729FBB27F00DB11D639FAA2777
:10070000F00DB11DAA1F649F6627B00DA11D661FC5
:10071000829F2227B00DA11D621F739FB00DA11DE6
:10072000621F839FA00D611D221F749F3327A00DA0
:10073000611D231F849F600D211D822F762F6A2F3C
:1007400011249F5750409AF0F1F088234AF0EE0FA1
:10075000FF1FBB1F661F771F881F91505040A9F7CE
:100760009E3F510580F00C940C030C9457035F3F9F
:10077000E4F3983ED4F3869577956795B795F7950A
:10078000E7959F5FC1F7FE2B880F911D9695879582
:1007900097F90895FA01EE0FFF1F309621053105F4
:1007A000A1F16115710561F48038BFE39B0749F140
:1007B00068949038810561F08038BFEF9B0741F065
:1007C00099234AF5FF3FE1053105210519F1E89428
:1007D0000894E795D901AA2329F4AB2FBE2FF85F1F
:1007E000D0F310C0FF5F70F4A695E0F7F73950F032
:1007F00019F0FF3A38F49F779F930DD00F9007FCC4
:100800009058089546F00C94120360E070E080E880
:100810009FE308954FE79F775F934F933F932F9305
:100820000E94C5042F913F914F915F910E945D03FB
:100830000C94220429F416F00C940C030C94560327
:100840000C9412030E943C03A8F39638A0F707F813
:100850000F92E8942BE33AEA48EB5FE70E947303B8
:100860000F920F920F924DB75EB70F920E940D0537
:10087000E8E6F0E00E9454044F915F91EF91FF9100
:10088000E595EE1FFF1F49F0FE57E0684427EE0F85
:10089000441FFA95E1F74195550B0E9487040F908C
:1008A00007FE0C947B040895DF93CF931F930F935F
:1008B000FF92EF92DF927B018C01689406C0DA2EE2
:1008C000EF010E947003FE01E894A59125913591F6
:1008D00045915591A6F3EF010E944402FE01970154
:1008E000A801DA9469F7DF90EF90FF900F911F91C4
:1008F000CF91DF9108959B01AC0160E070E080E84A
:100900009FE30C9441050C940C030C94B3050E94D6
:100910003C03D8F39923C9F3940F511DA3F39150CD
:10092000504094F059F0882332F0660F771F881FEB
:1009300091505040C1F79E3F51052CF7880F911DF3
:100940009695879597F908955F3FACF0983E9CF097
:10095000BB27869577956795B79508F4B160939511
:10096000C1F7BB0F58F711F460FFE8CF6F5F7F4FFF
:100970008F4F9F4FE3CF0C94570316F00C94B305A1
:100980000C94120368940C940C030E943C03A8F38B
:100990009923C1F3AEF3DF93CF931F930F93FF928D
:1009A000C92FDD2788232AF02197660F771F881F1C
:1009B000DAF720E030E040E85FEB9FE3883920F091
:1009C000803E38F021968F770E942D02E0E9F0E01A
:1009D00004C00E942D02EDEBF0E00E9454048B0154
:1009E000BE01EC01FB2E6F5771097595771F880BBF
:1009F000990B0E94D10228E132E741E35FE30E94B4
:100A00007003AF2D9801AE01FF900F911F91CF9110
:100A1000DF910E9444020C942303FA01DC01AA0F27
:100A2000BB1F9B01AC01BF5728F422273327442763
:100A3000507820C0B75190F4AB2F002446953795DD
:100A40002795011CA395D2F3002071F0220F331FCC
:100A5000441FB395DAF30ED00C942C02613071056B
:100A6000A0E88A07B94630F49B01AC0166277727D6
:100A700088279078309621F02083318342835383F6
:100A800008950E9455050C9423030E941C0358F0FE
:100A90000E94150340F029F45F3F29F00C940C03E9
:100AA00051110C9457030C9412030E94340368F301
:100AB0009923B1F3552391F3951B550BBB27AA2717
:100AC00062177307840738F09F5F5F4F220F331F51
:100AD000441FAA1FA9F335D00E2E3AF0E0E832D019
:100AE00091505040E695001CCAF72BD0FE2F29D01C
:100AF000660F771F881FBB1F261737074807AB07EE
:100B0000B0E809F0BB0B802DBF01FF2793585F4F62
:100B10003AF09E3F510578F00C940C030C94570367
:100B20005F3FE4F3983ED4F3869577956795B79544
:100B3000F7959F5FC9F7880F911D9695879597F94F
:100B40000895E1E0660F771F881FBB1F62177307C8
:100B50008407BA0720F0621B730B840BBA0BEE1FDD
:100B600088F7E09508959F3F31F0915020F48795E4
:100B700077956795B795880F911D9695879597F905
:100B80000895FB01DC010D900020E9F71197019019
:0C0B90000D920020E1F70895F894FFCFCB
:060B9C0056200A0D0000C6
:00000001FF
